{
  "_format": "hh-sol-artifact-1",
  "contractName": "MerkleAirdrop",
  "sourceName": "contracts/Airdrop.sol",
  "abi": [
    {
      "inputs": [
        {
          "internalType": "address",
          "name": "_tokenAddress",
          "type": "address"
        },
        {
          "internalType": "bytes32",
          "name": "_merkleRoot",
          "type": "bytes32"
        }
      ],
      "stateMutability": "nonpayable",
      "type": "constructor"
    },
    {
      "anonymous": false,
      "inputs": [
        {
          "indexed": true,
          "internalType": "address",
          "name": "claimer",
          "type": "address"
        },
        {
          "indexed": false,
          "internalType": "uint256",
          "name": "amount",
          "type": "uint256"
        }
      ],
      "name": "AirdropClaimed",
      "type": "event"
    },
    {
      "inputs": [],
      "name": "BAYC",
      "outputs": [
        {
          "internalType": "contract IERC721",
          "name": "",
          "type": "address"
        }
      ],
      "stateMutability": "view",
      "type": "function"
    },
    {
      "inputs": [
        {
          "internalType": "uint256",
          "name": "_amount",
          "type": "uint256"
        },
        {
          "internalType": "bytes32[]",
          "name": "proof",
          "type": "bytes32[]"
        }
      ],
      "name": "claim",
      "outputs": [],
      "stateMutability": "nonpayable",
      "type": "function"
    },
    {
      "inputs": [],
      "name": "getContractBalance",
      "outputs": [
        {
          "internalType": "uint256",
          "name": "",
          "type": "uint256"
        }
      ],
      "stateMutability": "view",
      "type": "function"
    },
    {
      "inputs": [
        {
          "internalType": "address",
          "name": "",
          "type": "address"
        }
      ],
      "name": "hasClaimed",
      "outputs": [
        {
          "internalType": "bool",
          "name": "",
          "type": "bool"
        }
      ],
      "stateMutability": "view",
      "type": "function"
    },
    {
      "inputs": [],
      "name": "merkleRoot",
      "outputs": [
        {
          "internalType": "bytes32",
          "name": "",
          "type": "bytes32"
        }
      ],
      "stateMutability": "view",
      "type": "function"
    },
    {
      "inputs": [],
      "name": "requiredNftAddress",
      "outputs": [
        {
          "internalType": "contract IERC721",
          "name": "",
          "type": "address"
        }
      ],
      "stateMutability": "view",
      "type": "function"
    },
    {
      "inputs": [],
      "name": "token",
      "outputs": [
        {
          "internalType": "contract IERC20",
          "name": "",
          "type": "address"
        }
      ],
      "stateMutability": "view",
      "type": "function"
    },
    {
      "inputs": [
        {
          "internalType": "bytes32",
          "name": "newRoot",
          "type": "bytes32"
        }
      ],
      "name": "updateMerkleRoot",
      "outputs": [],
      "stateMutability": "nonpayable",
      "type": "function"
    },
    {
      "inputs": [
        {
          "internalType": "uint256",
          "name": "_amount",
          "type": "uint256"
        }
      ],
      "name": "withdrawTokens",
      "outputs": [],
      "stateMutability": "nonpayable",
      "type": "function"
    }
  ],
  "bytecode": "0x60806040523480156200001157600080fd5b506040516200136d3803806200136d83398181016040528101906200003791906200016c565b81600260006101000a81548173ffffffffffffffffffffffffffffffffffffffff021916908373ffffffffffffffffffffffffffffffffffffffff16021790555080600181905550336000806101000a81548173ffffffffffffffffffffffffffffffffffffffff021916908373ffffffffffffffffffffffffffffffffffffffff1602179055505050620001b3565b600080fd5b600073ffffffffffffffffffffffffffffffffffffffff82169050919050565b6000620000f982620000cc565b9050919050565b6200010b81620000ec565b81146200011757600080fd5b50565b6000815190506200012b8162000100565b92915050565b6000819050919050565b620001468162000131565b81146200015257600080fd5b50565b60008151905062000166816200013b565b92915050565b60008060408385031215620001865762000185620000c7565b5b600062000196858286016200011a565b9250506020620001a98582860162000155565b9150509250929050565b6111aa80620001c36000396000f3fe608060405234801561001057600080fd5b50600436106100935760003560e01c80636ba00072116100665780636ba000721461010a5780636f9fb98a1461012857806373b2e80e146101465780639582b6e514610176578063fc0c546a1461019457610093565b80632eb4a7ab146100985780632f52ebb7146100b6578063315a095d146100d25780634783f0ef146100ee575b600080fd5b6100a06101b2565b6040516100ad9190610a3b565b60405180910390f35b6100d060048036038101906100cb9190610afb565b6101b8565b005b6100ec60048036038101906100e79190610b5b565b610580565b005b61010860048036038101906101039190610bb4565b610798565b005b6101126107fa565b60405161011f9190610c60565b60405180910390f35b610130610820565b60405161013d9190610c8a565b60405180910390f35b610160600480360381019061015b9190610ce3565b61091b565b60405161016d9190610d2b565b60405180910390f35b61017e61093b565b60405161018b9190610c60565b60405180910390f35b61019c610953565b6040516101a99190610d67565b60405180910390f35b60015481565b600460003373ffffffffffffffffffffffffffffffffffffffff1673ffffffffffffffffffffffffffffffffffffffff16815260200190815260200160002060009054906101000a900460ff1615610245576040517f08c379a000000000000000000000000000000000000000000000000000000000815260040161023c90610ddf565b60405180910390fd5b600073bc4ca0eda7647a8ab7c2061c2e118a18a936f13d73ffffffffffffffffffffffffffffffffffffffff166370a08231336040518263ffffffff1660e01b81526004016102949190610e0e565b602060405180830381865afa1580156102b1573d6000803e3d6000fd5b505050506040513d601f19601f820116820180604052508101906102d59190610e3e565b11610315576040517f08c379a000000000000000000000000000000000000000000000000000000000815260040161030c90610eb7565b60405180910390fd5b6000338460405160200161032a929190610ed7565b604051602081830303815290604052805190602001206040516020016103509190610f21565b6040516020818303038152906040528051906020012090506103b6838380806020026020016040519081016040528093929190818152602001838360200280828437600081840152601f19601f8201169050808301925050505050505060015483610979565b6103f5576040517f08c379a00000000000000000000000000000000000000000000000000000000081526004016103ec90610f88565b60405180910390fd5b6001600460003373ffffffffffffffffffffffffffffffffffffffff1673ffffffffffffffffffffffffffffffffffffffff16815260200190815260200160002060006101000a81548160ff021916908315150217905550600260009054906101000a900473ffffffffffffffffffffffffffffffffffffffff1673ffffffffffffffffffffffffffffffffffffffff1663a9059cbb33866040518363ffffffff1660e01b81526004016104aa929190610ed7565b6020604051808303816000875af11580156104c9573d6000803e3d6000fd5b505050506040513d601f19601f820116820180604052508101906104ed9190610fd4565b61052c576040517f08c379a00000000000000000000000000000000000000000000000000000000081526004016105239061104d565b60405180910390fd5b3373ffffffffffffffffffffffffffffffffffffffff167f650e45f04ef8a0c267b2f78d983913f69ae3a353b2b32de5429307522be0ab55856040516105729190610c8a565b60405180910390a250505050565b3373ffffffffffffffffffffffffffffffffffffffff1660008054906101000a900473ffffffffffffffffffffffffffffffffffffffff1673ffffffffffffffffffffffffffffffffffffffff16146105d857600080fd5b80600260009054906101000a900473ffffffffffffffffffffffffffffffffffffffff1673ffffffffffffffffffffffffffffffffffffffff166370a08231306040518263ffffffff1660e01b81526004016106349190610e0e565b602060405180830381865afa158015610651573d6000803e3d6000fd5b505050506040513d601f19601f820116820180604052508101906106759190610e3e565b10156106b6576040517f08c379a00000000000000000000000000000000000000000000000000000000081526004016106ad906110b9565b60405180910390fd5b600260009054906101000a900473ffffffffffffffffffffffffffffffffffffffff1673ffffffffffffffffffffffffffffffffffffffff1663a9059cbb33836040518363ffffffff1660e01b8152600401610713929190610ed7565b6020604051808303816000875af1158015610732573d6000803e3d6000fd5b505050506040513d601f19601f820116820180604052508101906107569190610fd4565b610795576040517f08c379a000000000000000000000000000000000000000000000000000000000815260040161078c90611125565b60405180910390fd5b50565b3373ffffffffffffffffffffffffffffffffffffffff1660008054906101000a900473ffffffffffffffffffffffffffffffffffffffff1673ffffffffffffffffffffffffffffffffffffffff16146107f057600080fd5b8060018190555050565b600360009054906101000a900473ffffffffffffffffffffffffffffffffffffffff1681565b60003373ffffffffffffffffffffffffffffffffffffffff1660008054906101000a900473ffffffffffffffffffffffffffffffffffffffff1673ffffffffffffffffffffffffffffffffffffffff161461087a57600080fd5b600260009054906101000a900473ffffffffffffffffffffffffffffffffffffffff1673ffffffffffffffffffffffffffffffffffffffff166370a08231306040518263ffffffff1660e01b81526004016108d59190610e0e565b602060405180830381865afa1580156108f2573d6000803e3d6000fd5b505050506040513d601f19601f820116820180604052508101906109169190610e3e565b905090565b60046020528060005260406000206000915054906101000a900460ff1681565b73bc4ca0eda7647a8ab7c2061c2e118a18a936f13d81565b600260009054906101000a900473ffffffffffffffffffffffffffffffffffffffff1681565b6000826109868584610990565b1490509392505050565b60008082905060005b84518110156109d5576109c6828683815181106109b9576109b8611145565b5b60200260200101516109e0565b91508080600101915050610999565b508091505092915050565b60008183106109f8576109f38284610a0b565b610a03565b610a028383610a0b565b5b905092915050565b600082600052816020526040600020905092915050565b6000819050919050565b610a3581610a22565b82525050565b6000602082019050610a506000830184610a2c565b92915050565b600080fd5b600080fd5b6000819050919050565b610a7381610a60565b8114610a7e57600080fd5b50565b600081359050610a9081610a6a565b92915050565b600080fd5b600080fd5b600080fd5b60008083601f840112610abb57610aba610a96565b5b8235905067ffffffffffffffff811115610ad857610ad7610a9b565b5b602083019150836020820283011115610af457610af3610aa0565b5b9250929050565b600080600060408486031215610b1457610b13610a56565b5b6000610b2286828701610a81565b935050602084013567ffffffffffffffff811115610b4357610b42610a5b565b5b610b4f86828701610aa5565b92509250509250925092565b600060208284031215610b7157610b70610a56565b5b6000610b7f84828501610a81565b91505092915050565b610b9181610a22565b8114610b9c57600080fd5b50565b600081359050610bae81610b88565b92915050565b600060208284031215610bca57610bc9610a56565b5b6000610bd884828501610b9f565b91505092915050565b600073ffffffffffffffffffffffffffffffffffffffff82169050919050565b6000819050919050565b6000610c26610c21610c1c84610be1565b610c01565b610be1565b9050919050565b6000610c3882610c0b565b9050919050565b6000610c4a82610c2d565b9050919050565b610c5a81610c3f565b82525050565b6000602082019050610c756000830184610c51565b92915050565b610c8481610a60565b82525050565b6000602082019050610c9f6000830184610c7b565b92915050565b6000610cb082610be1565b9050919050565b610cc081610ca5565b8114610ccb57600080fd5b50565b600081359050610cdd81610cb7565b92915050565b600060208284031215610cf957610cf8610a56565b5b6000610d0784828501610cce565b91505092915050565b60008115159050919050565b610d2581610d10565b82525050565b6000602082019050610d406000830184610d1c565b92915050565b6000610d5182610c2d565b9050919050565b610d6181610d46565b82525050565b6000602082019050610d7c6000830184610d58565b92915050565b600082825260208201905092915050565b7f41697264726f7020616c726561647920636c61696d6564000000000000000000600082015250565b6000610dc9601783610d82565b9150610dd482610d93565b602082019050919050565b60006020820190508181036000830152610df881610dbc565b9050919050565b610e0881610ca5565b82525050565b6000602082019050610e236000830184610dff565b92915050565b600081519050610e3881610a6a565b92915050565b600060208284031215610e5457610e53610a56565b5b6000610e6284828501610e29565b91505092915050565b7f4d757374206f776e20612042415943204e465420746f20636c61696d00000000600082015250565b6000610ea1601c83610d82565b9150610eac82610e6b565b602082019050919050565b60006020820190508181036000830152610ed081610e94565b9050919050565b6000604082019050610eec6000830185610dff565b610ef96020830184610c7b565b9392505050565b6000819050919050565b610f1b610f1682610a22565b610f00565b82525050565b6000610f2d8284610f0a565b60208201915081905092915050565b7f496e76616c69642070726f6f6600000000000000000000000000000000000000600082015250565b6000610f72600d83610d82565b9150610f7d82610f3c565b602082019050919050565b60006020820190508181036000830152610fa181610f65565b9050919050565b610fb181610d10565b8114610fbc57600080fd5b50565b600081519050610fce81610fa8565b92915050565b600060208284031215610fea57610fe9610a56565b5b6000610ff884828501610fbf565b91505092915050565b7f5472616e73666572206661696c65640000000000000000000000000000000000600082015250565b6000611037600f83610d82565b915061104282611001565b602082019050919050565b600060208201905081810360008301526110668161102a565b9050919050565b7f496e73756666696369656e742062616c616e6365000000000000000000000000600082015250565b60006110a3601483610d82565b91506110ae8261106d565b602082019050919050565b600060208201905081810360008301526110d281611096565b9050919050565b7f5769746864726177206661696c65642e00000000000000000000000000000000600082015250565b600061110f601083610d82565b915061111a826110d9565b602082019050919050565b6000602082019050818103600083015261113e81611102565b9050919050565b7f4e487b7100000000000000000000000000000000000000000000000000000000600052603260045260246000fdfea2646970667358221220ac7c3a3ad90f2fb7ee87ed038428381436d05978c0ec7431ed7d623207624b3b64736f6c63430008180033",
  "linkReferences": {},
  "deployedLinkReferences": {}
}